:020000040800F2
:1000000008260020710200087D1B00085117000817
:10001000791B0008DF0F00086F3D0008000000009A
:100020000000000000000000000000009121000816
:100030000911000800000000C91C00081D27000865
:100040008B0200088B0200088B0200088B0200085C
:100050008B0200088B0200088B0200088B0200084C
:100060008B0200088B0200088B0200088B0200083C
:100070008B0200088B0200088B0200088B0200082C
:100080008B0200088B0200088B0200088B0200081C
:100090008B0200088B0200088B0200088B0200080C
:1000A0008B0200088B0200088B0200088B020008FC
:1000B0008B020008B92900088B0200088B02000897
:1000C0008B0200088B0200088B0200088B020008DC
:1000D0008B02000835390008953A00088B020008A9
:1000E0008B0200088B0200088B0200088B020008BC
:1000F0008B0200088B0200088B0200088B020008AC
:100100008B0200088B0200088B0200088B0200089B
:100110008B0200088B0200089D2D00088B0200084E
:10012000051000088B0200088B0200088B020008F3
:100130008B0200088B0200088B0200088B0200086B
:100140008B0200088B0200088B0200080D1C0008BF
:100150008B0200088B0200088B0200088B0200084B
:100160008B0200088B0200088B0200088B0200083B
:100170008B0200088B0200088B0200088B0200082B
:100180008B0200088B02000800F002F800F061F812
:100190000AA090E8000C82448344AAF10107DA45E2
:1001A00001D100F056F8AFF2090EBAE80F0013F0D3
:1001B000010F18BFFB1A43F001031847E4B5000014
:1001C00004B600000A444FF0000C10F8013B13F095
:1001D000070408BF10F8014B1D1108BF10F8015BA0
:1001E000641E05D010F8016B641E01F8016BF9D193
:1001F00013F0080F1EBF10F8014BAD1C0C1B09D1EA
:100200006D1E58BF01F801CBFAD505E014F8016B5B
:1002100001F8016B6D1EF9D59142D6D370470000ED
:100220000023002400250026103A28BF78C1FBD8FF
:10023000520728BF30C148BF0B607047642900F0E7
:100240007380002070471FB503F090FF1FBD10B5ED
:1002500010BD00F079FB1146FFF7F5FF03F0D4FE67
:1002600000F097FB03B4FFF7F2FF03BC00F09AFB2A
:100270000948804709480047FEE7FEE7FEE7FEE73A
:10028000FEE7FEE7FEE7FEE7FEE7FEE70448054976
:10029000054A064B70470000412800088901000804
:1002A0000820002008260020082200200822002024
:1002B0000FB41CB5074B06AA7B446946009005980D
:1002C00000F0E9FA0020694600F0F8FA1CBC5DF87D
:1002D00014FB00000106000070B504468569006843
:1002E000C10601D5302600E02026C00707D070BD2A
:1002F000D4E9012130469047206A401C20626D1EDF
:10030000F6D570BD70B5044685690078C00707D181
:1003100070BDD4E9012120209047206A401C206252
:100320006D1EF6D570BD00002DE9F0410646002493
:1003300010687529314616A510D0AFF3008000284B
:1003400002DA404213A507E031688A0701D512A5F9
:1003500002E0490704D511A5012401E0AFF30080B4
:1003600000210A2206F1240709E0B0FBF2FCB0FBF1
:10037000F2F302FB1C00303078541846491C002868
:10038000F3D123462A463046BDE8F04100F025BAB5
:10039000000000002D0000002B00000020000000E5
:1003A0002DE9F05F894604464FF0000ADFF824B1DA
:1003B000FB44C0F820A02046E168884700287DD093
:1003C000252806D0D4E901219047206A401C2062EC
:1003D000F1E700255F462046E16888472028064669
:1003E00007DB312E05D2B81910F8200C08B10543EF
:1003F000F1E7A80701D525F00405C4F81CA00027E3
:10040000C4F818A02A2E09D0304603F0E9FC38B30E
:1004100004EB8708303EC8F8186019E059F8041B4F
:10042000204604EB87029161E1688847012F064668
:1004300018D1E069002820DA25F020051DE0D8F861
:10044000180000EB800006EB40003038C8F81800B8
:100450002046E1688847064603F0C2FC0028EED13A
:10046000012F0AD02E2E08D12046E16888477F1C34
:100470000646022F45F02005C4DBA069002803DAF8
:10048000404245F00105A061E80701D025F01005C4
:10049000A6B1A6F14100192802D8203645F400651E
:1004A0004A463146204625604D46FFF7C7FE60B1FB
:1004B000012807D0ED1D25F0070000E007E000F15E
:1004C000080978E705F1040975E730467AE7206AFC
:1004D000BDE8F09FD8B3000010B5431E13F8014FDC
:1004E000002CFBD105E011F8014B002C03F8014B67
:1004F00003D0521EF7D20021197010BD10B5431C55
:1005000002E010F8011B71B18107FAD14FF00132FE
:1005100002C88C1A8C4314EAC211F9D0C01A0A0618
:1005200003D0C01E10BDC01A10BD0A0401D0801E29
:1005300010BD0902FCD0401E10BD40EA010370B599
:100540009B072ED14FF00136042A2AD308C810C9C0
:100550009D1B9D43121F15EAC61517D0D8B2E1B2F4
:10056000401A50EA056110D198B2A1B2401A50EA7F
:1005700005410AD123F07F4024F07F41401A50EA20
:10058000052102D1180EA0EB146070BDA342DBD090
:1005900018BA21BA884201D9012070BD4FF0FF304E
:1005A00070BD0AB9002070BD10F8013B11F8014B75
:1005B00063B1A3420AD1521E08D010F8013B11F8D2
:1005C000014B1BB1A34201D1521EEDD1181B70BDCE
:1005D000032A40F2308010F0030C00F0158011F86F
:1005E000013BBCF1020F624498BF11F801CB00F847
:1005F000013B38BF11F8013BA2F1040298BF00F89B
:1006000001CB38BF00F8013B11F0030300F0678015
:10061000083AC0F0088051F8043B083A51F804CB7E
:10062000A0E80810F5E7121D5CBF51F8043B40F844
:10063000043BAFF30080D20724BF11F8013B11F84F
:1006400001CB48BF11F8012B24BF00F8013B00F893
:1006500001CB48BF00F8012B7047431A28BF9A42CC
:100660007FF6B6AF032A1044114440F2268010F002
:10067000030F1EBF11F8013D521E00F8013D10F09E
:10068000030F7FF4F6AF11F0030300F02F81083A57
:10069000C0F00B8051F8043D083A51F804CD40F801
:1006A000043D40F804CDFFF7F3BF121D5CBF51F8C5
:1006B000043D40F8043DAFF30080D20724BF11F899
:1006C000013D11F801CD48BF11F8012C24BF00F8FD
:1006D000013D00F801CD48BF00F8012C704710B56E
:1006E000203AC0F00B80B1E81850203AA0E818502A
:1006F000B1E81850A0E81850BFF4F5AF5FEA027CEB
:1007000024BFB1E81850A0E8185044BF18C918C059
:10071000BDE810405FEA827C24BF51F8043B40F8FA
:10072000043B08BF7047D20728BF31F8023B48BFDF
:1007300011F8012B28BF20F8023B48BF00F8012B1D
:1007400070474FF000020429C0F0128010F0030C33
:1007500000F01B80CCF1040CBCF1020F18BF00F8B4
:10076000012BA8BF20F8022BA1EB0C0100F00DB863
:100770005FEAC17C24BF00F8012B00F8012B48BFC1
:1007800000F8012B70474FF0000200B51346944665
:100790009646203922BFA0E80C50A0E80C50B1F1D9
:1007A0002001BFF4F7AF090728BFA0E80C5048BFED
:1007B0000CC05DF804EB890028BF40F8042B08BF8B
:1007C000704748BF20F8022B11F0804F18BF00F887
:1007D000012B70477047704770472DE9F0470D4671
:1007E00099469246044600F124080168880604D51B
:1007F000E06921F01001216000E00120A84201DD44
:10080000471B00E00027A1697A1902EB0900081ACA
:10081000A0612078C00602D42046FFF75DFD0026C7
:1008200008E0D4E901211AF806009047206A401C2C
:10083000761C20624E45F4DB2078C0060AD520469F
:10084000FFF74AFD06E0D4E9012130209047206AF5
:10085000401C2062381EA7F10107F4DC07E0D4E950
:10086000012118F805009047206A401C2062281ECC
:10087000A5F10105F3DC2046FFF744FD20780006D2
:1008800002D50220BDE8F0870120FBE701694A1C80
:1008900002610878704700B58FB0CDE901310021C1
:1008A000059105497944CDE9031011466846FFF7E3
:1008B00077FD0FB000BD0000E5FFFFFF0A6802F8FA
:1008C000010B0A607047431A28BF9A427FF607AFB0
:1008D000104410F0030F11441EBF11F8013D521EC9
:1008E00000F8013D10F0030F7FF4F6AF103AC0F0AE
:1008F0000A8010B531E91850103A20E91850BFF4B9
:10090000F9AFBDE81040530724BF31E9081020E9D2
:10091000081044BF51F8043D40F8043D12F0030FA5
:1009200008BF7047D20728BF31F8023D48BF11F811
:10093000012C28BF20F8023D48BF00F8012C704769
:1009400000487047A41F00207546FFF7F9FFAE4628
:1009500005006946534620F00700854618B020B5CB
:10096000FFF794FCBDE820404FF000064FF0000771
:100970004FF000084FF0000B21F00701AC46ACE847
:10098000C009ACE8C009ACE8C009ACE8C0098D46B4
:10099000704710B50446AFF300802046BDE8104014
:1009A000FFF760BC01491820ABBEFEE7260002003D
:1009B000704700001CB50121102001F087F90220CA
:1009C0008DF8050001208DF8040000208DF8060048
:1009D000702000906946024800F018FC1CBD000021
:1009E0000010024001B582B02021284800F082FCAE
:1009F0001021264800F080FC00BF00BF00BF00BFF0
:100A00002021224800F078FC00BF10211F4800F090
:100A100073FC00BF00BF20211C4800F06BFC0020CD
:100A2000019025E0BDF8080000F4004020B140210D
:100A3000164800F061FC03E04021144800F05AFC25
:100A40001021124800F056FC00BF00BF10210F48D3
:100A500000F052FC00BF00BFBDF808004FF6FF7168
:100A600001EA400002909DF80400401CC0B20190D1
:100A70009DF804001028D5DB2021044800F03CFC40
:100A80001021024800F038FC0EBD000000100240AA
:100A900008B54FF47A70009004E0BDF80000401EE5
:100AA00080B20090BDF800000028F6D108BD00001B
:100AB00000B587B00121080301F028F902208DF864
:100AC000190001208DF8180000208DF81A0004206C
:100AD000059005A92A4800F099FB382005900220CE
:100AE0008DF8180000208DF81A0003208DF81900E9
:100AF00001208DF81B0005A9224800F087FB052284
:100B00000321204800F0CAFB052204211D4800F003
:100B1000C5FB052211461B4800F0C0FB0421184804
:100B200000F0EAFBFFF7B4FF0421154800F0E2FBF8
:100B30000020ADF800004FF48270ADF802004FF4D1
:100B40000060ADF804000020ADF80600ADF8080024
:100B50004FF40070ADF80A003820ADF80C0000200A
:100B6000ADF80E000720ADF810006946064801F008
:100B7000F1FA0121044801F0D3FA07B000BD0000EA
:100B8000000C0240000402400030014000B585B076
:100B90000020049028E09DF81010012001F08EFA4A
:100BA0003F499DF8102021F81200084600883D4971
:100BB00008803B4840883C490880394880883B4948
:100BC00008803748C0880190354800890090344833
:100BD00040893749088032488089364908809DF825
:100BE0001000401CC0B204909DF810000728D2DB12
:100BF000BDF8002030490878411C2F4B19702F494F
:100C000021F810201846007864281CD100201946CD
:100C10000870029003900CE028489DF80C1030F802
:100C200011000299084402909DF80C00401CC0B2CB
:100C300003909DF80C006428EEDB64210298B0FB61
:100C4000F1F01F490880BDF804201E490878411CB6
:100C50001C4B19701C4921F81020184600783228C6
:100C60001CD1002019460870029003900CE0164831
:100C70009DF80C1030F811000299084402909DF87C
:100C80000C00401CC0B203909DF80C003228EEDB33
:100C900032210298B0FBF1F00C49088005B000BD8C
:100CA0004C1C00204C0000204E000020480000207A
:100CB00042000020440000205C010020381D00207C
:100CC0004A0000205B0100205C1C00204600002040
:100CD00001B582B000BF02210B4801F02DFA0028B7
:100CE000F9D0BDF80810084801F032FA00BF012120
:100CF000054801F021FA0028F9D0034801F025FA4F
:100D00000190BDF804000EBD0030014000B59BB05D
:100D10000121080200F0FAFF0121880500F0D6FF4A
:100D20004020009003208DF8040000208DF807007B
:100D30006946334800F06AFA002002903148039077
:100D40003148049000200590642006900020079010
:100D50004FF4806008904000099080000A90401194
:100D60000B9040020C9000200D9001200E9000206E
:100D70000F90109002A9254800F09AF9012123480C
:100D800000F06EF901221021204800F074F900F003
:100D900028F901211B484C3800F080F80020119000
:100DA00012901390149011A800F060F80020159094
:100DB00001208DF858008DF85900002018901990E6
:100DC00003208DF8680015A90E484C3800F07CF817
:100DD0000023012206210B484C3800F09FF8012126
:100DE00008484C3800F036F806484C3800F0F2F865
:100DF000012104484C3800F05CF81BB000BD000035
:100E0000000002404C200140CC1900201064024038
:100E10000CB50020009001900CE00C489DF80410E7
:100E200030F811000099084400909DF80400401C1F
:100E3000C0B201909DF804006428EEDB64210098A4
:100E4000B0FBF1F0024908800CBD0000CC19002075
:100E50004000002021B1826842F00102826003E07C
:100E6000826822F001028260704700000021084A77
:100E70001168084A1140D0E900231A4383681A43D5
:100E8000C3681A431143044AC2F8041370470000B0
:100E900004230140E030FCFF0020014021B18268C2
:100EA00042F48072826003E0826822F48072826081
:100EB000704721B1826842F40072826003E0826868
:100EC00022F400728260704730B502460020002391
:100ED0005068104C20400D790C6844EA05242043EA
:100EE000506090680C4C2040D1E903542C438D682D
:100EF0002C434D7944EA450420439060D06A20F4A5
:100F000070000C7D641EE4B2234340EA0350D062BB
:100F100030BD0000FFFEFFFCFDF7FFC0F0B504464A
:100F20000D4600200021092D11DDE068A5F10A061B
:100F300006EB4607072606FA07F18843A5F10A06DD
:100F400006EB460603FA06F10843E0600CE0206970
:100F500005EB4507072606FA07F1884305EB45062A
:100F600003FA06F108432061072A0FDA606B561E68
:100F700006EB86071F2606FA07F18843561E06EB86
:100F8000860605FA06F10843606322E00D2A0FDAAF
:100F9000206BD61F06EB86071F2606FA07F188434B
:100FA000D61F06EB860605FA06F10843206310E01B
:100FB000E06AA2F10D0606EB86071F2606FA07F186
:100FC0008843A2F10D0606EB860605FA06F10843F2
:100FD000E062F0BD816841F080418160704700BFF0
:100FE000FEE708B538208DF8000003208DF80100D9
:100FF0008DF8020001208DF80300684600F0C0FD66
:1010000008BD000010B50649064800F00FF8064874
:10101000006820F00200801C0349086010BD000039
:101020002080001010640240240000200246094B7A
:101030009A4201D2084801E00648103801F00053F6
:101040001BB1064B0B40C36002E0044B0B408360B6
:101050007047000010640240006002407D0F7D0F69
:1010600021B1026842F00102026003E0026822F04E
:1010700001020260704710B501F080034BB122B14C
:10108000436943F08003436103E0436923F0800335
:10109000436180290BD02AB1036801F01E04234369
:1010A000036004E0036801F01E04A343036010BD65
:1010B00010B500220268134B1A40CC680B6823431A
:1010C0004C6923438C692343CC6923430C6A234333
:1010D0004C6A23438C6A23434C6B23438C6B23431E
:1010E0001A430260426922F00702D1E90B3423431C
:1010F0001A4342610B6943604B6883608B68C3602D
:1011000010BD00003F801CF0704700001CB501219D
:101110001F2000F0DBFD02208DF8050001208DF876
:10112000040000208DF806004FF40060009069462E
:10113000314800F06BF802208DF8050000208DF892
:10114000040001208DF80700C003009069462A487A
:1011500000F05CF802208DF8050001208DF80400F5
:1011600000208DF8060041F20200009069462348F5
:1011700000F04CF802208DF8050001208DF80400E5
:1011800000208DF8060043F6C240009069461C48D6
:1011900000F03CF802208DF8050001208DF80400D5
:1011A00000208DF806004FF4405000906946154825
:1011B00000F02CF802208DF8050001208DF80400C5
:1011C00000208DF806000420009069460E4800F0CB
:1011D0001DF84FF400510B4800F08EF840210848EC
:1011E00000F088F84021064800F086F84FF40051DE
:1011F000034800F081F81CBD0000024000040240DA
:1012000000080240000C024000100240F0B50A46FF
:1012100000210023002400BF3DE0012505FA01F371
:10122000156805EA03049C4234D105684F00032683
:10123000BE40B543056015794E00B540066835439C
:1012400005601579012D02D01579022D16D185681A
:101250004F000326BE40B543856055794E00B5402A
:10126000866835438560456801268E40B5434560F4
:10127000456896798E40B6B235434560C5684F00E3
:101280000326BE40B543C560D5794E00B540C6685B
:101290003543C560491C1029BFD3F0BDF0B500230C
:1012A00000244D07ED0E02FA05F3CE1000F12005E3
:1012B00055F826504E07F70E0F26BE40B543CF1007
:1012C00000F1200646F82750CE1000F1200555F811
:1012D000265045EA0304CE1000F1200545F82640CB
:1012E000F0BD0246002013690B400BB1012000E065
:1012F0000020704741837047018370472DE9F04F0C
:10130000DFF828B191B04FF0FF35DBF80030B3F9CA
:1013100022100691DE69B3F92490F469A189814213
:1013200006D8E289824203D3471AD4F8008012E03B
:10133000D4E9018100296FD00A8882426CD84D8897
:10134000854269D3801A82B2486800EB8200B0F906
:101350000070B0F90250781C5ED0307EA17C10FB8A
:1013600001FA217CCDE90801B3F92A60304600F08A
:101370009BFBC0B20E90DBF8000007FB0A81A37C48
:10138000826B0127CDE90412CDE90273C069DDE962
:101390000832C17E807ECDE900014946069800F002
:1013A000F1F9681C18D046F0020000F07DFBDBF874
:1013B0000000A37C05FB0A81826BCDE90273CDE9B5
:1013C0000412C069DDE90832C17E807ECDE90001EA
:1013D0004946069800F0D6F9DBF800005D46C06982
:1013E000417E007E814214D9022E12D086F0040084
:1013F00000F05AFB2868C069027EC37E12FB03918D
:10140000437E857E099A06984B4402FB050200F054
:10141000BDFA0E9800F048FBDBF80000627C418CBE
:101420001144418411B0BDE8F08F00008C190020F8
:1014300004480068C069C06909B1027C0A60407C48
:10144000704700008C190020022008807047C06996
:1014500082898A4202D8C2898A4210D2806880B1C9
:1014600002888A420DD843888B420AD3406800EB39
:101470008100A0EB8200B0F90000002801DB012010
:101480007047002070470000F0B5244D044687B037
:1014900028682146B0F92A30C069C06900F012F905
:1014A0001F49097809B143F00203002834D041688C
:1014B0000088201A00EB400001EB80042078C01D5A
:1014C000C608184600F0F0FA07462868A26801230B
:1014D000816BCDE90236CDE90421C169CA7E897EDE
:1014E000CDE90012B0F9241094F90320B0F92200DC
:1014F000114494F9022063781044227800F042F9F4
:10150000384600F0D1FA28682279C369B0F9221070
:101510009B7E12FB0311418407B0F0BD8C190020A3
:10152000B019002030B5104C05460B4620682946FE
:10153000C069C06900F0C6F8002813D0416800886F
:101540002468281A00EB40020420E46900EB8200C2
:10155000085CA47E10FB04F0002B03D011F82210CD
:101560006143196030BD00008C19002003460D480E
:1015700010B500680C461946C069C06900F0A2F8B1
:1015800070B141680088181A00EB400001EB800040
:10159000D0E9001280682160C4E90120002010BD5C
:1015A000012010BD8C19002001200880704700B573
:1015B000C06900F087F8002800D0012000BD0000BD
:1015C0002DE9F35F0E46002500F096F8DFF8A880BD
:1015D0008346D8F8000090F82A00400702D500F0B2
:1015E0008BF801E000F079F800F08DF8D8F80000F1
:1015F0000024C1694A7EC97E12FB01FAB0F922902B
:10160000B0F924701FE0684600F080F80546D8F86D
:1016100000002946C069C06900F054F898B14168DB
:101620000088281A00EB400001EB800090F90210BE
:1016300000790144D8F80000C069807E11FB00F0F9
:10164000002800DD0444761EDDD51DB1284600F0DB
:1016500073F8044407EB0A0309EB04025B1E4846D7
:10166000521E394600F092F9584600F04CF80349F2
:1016700001200870BDE8FC9F8C190020B0190020E3
:101680002DE9F3410D4D0E4F0E462868B0F92A4062
:10169000A0070AD17A680098904706E0684600F0F3
:1016A00035F82968C96909688847761EF6D500208B
:1016B000387028684485BDE8FC8100008C19002042
:1016C000B019002006E002888A4202D842888A4285
:1016D00002D280680028F6D1704710B500F082F978
:1016E000BDE8104000F0B4B9024A1268D2695268ED
:1016F000104700008C19002010B500F07BF9BDE800
:10170000104000F0A5B900F0BDB900002DE9F0418E
:10171000084E044605683068016828468847074631
:101720003068416828468847284420603846BDE82C
:10173000F08100009019002038B50024694600941B
:10174000FFF7D2FF0099814200DD0C1A204638BD18
:1017500000BFFEE70146302901DB392901DD002207
:1017600000E0012290B270470449054A0968497CAB
:1017700052F8211009690968084700008C190020F7
:10178000A41900202DE9F04F05468DB07C48DDF806
:1017900060901A9C00681E4617464FF0000A78B108
:1017A0001B9B199ACDF808900593CDE90324DDE938
:1017B0001623CDE90023046833463A46284682E0E2
:1017C000DDE9160201EB060805EB070C1043A8F152
:1017D0000108ACF1010C012806D0C9F10800059000
:1017E000002002910890C8E066480268B2F90A3009
:1017F000581A002806DD361A002E65DD1946199B99
:1018000000FB0344B2F90E00A8EB0000002802DD43
:10181000361A002E58DDB2F90C00ACEB000000289F
:1018200000DD3F1AB2F908300020AB4237DD581B0B
:101830003F1A4B46B9F1080F28D007DC012B0DD019
:10184000022B13D0B9F1040F29D117E0102B1FD0B0
:10185000182B20D0B9F1200F21D11CE020F0070374
:1018600004EBE0041D4400F0070018E020F003033F
:1018700004EBA0041D4400F0030010E020F001037D
:1018800004EB60041D4400F0010008E0044404E09F
:1018900004EB400401E004EB800405440020002F29
:1018A00012DD1B9BDDF864C0CDE90403CDE902C461
:1018B000CDE90069527C34483B4650F82200C268AA
:1018C00054680A462946A0470DB0BDE8F08F179925
:1018D0000298084409902B49401E00900A68B2F90A
:1018E0000A30834241DCB2F90E10029881423CDB9F
:1018F0004FF0000BD84603950B9434E0BBF1000F7A
:1019000005D10B984FF0080B10F801AB0B9005991F
:10191000ABEB090B3AFA01F00AFA09F101F0FF0A00
:1019200004D118490968097C890716D41549096842
:10193000C96B0A680C921B9A0AB152F82000086021
:1019400016990398009B4218521E029900F01EF847
:101950000C490C980968C96B08600399169808F13E
:10196000010808440390B845C8DB0898401C08905B
:1019700009980290199804440898B042A7DBA3E79D
:10198000AC1900208C190020A419002038B5134C84
:101990002468B4F90850854200DD2846B4F90C509B
:1019A000954200DA2A46824217DBB4F90A508D428A
:1019B00000DD2946B4F90E509D4200DA2B468B42D9
:1019C0000BDB0093647C064B53F82440E3681D69ED
:1019D00013460A4601462046A84738BD8C19002008
:1019E000A419002002480068806B0068704700005E
:1019F0008C19002002480068C06B00687047000026
:101A00008C190020AFF300802DE9F041002809D0A7
:101A1000876837B10D4E716819B10468B4F5807FDD
:101A200002DD0020BDE8F0813068844200DD04461C
:101A3000002507E057F82500FFF796FE716841F88A
:101A400025006D1CA542F5DB7068EBE7BC19002092
:101A50000449054A0968497C52F821100969496816
:101A6000084700008C190020A419002004490968C7
:101A70000A7C520701D5C96B00E0896B086070478A
:101A80008C1900200149096809680847B819002025
:101A9000044909680A7C520701D5896B00E0C96BCB
:101AA000086070478C190020014909688968084757
:101AB000B819002010B52D48006A012804D1C102D0
:101AC0002B48FFF717FC04E04FF400612848FFF7AC
:101AD00013FC2648006A68B92448006B42F2107172
:101AE000884207D94FF400612148FFF703FC012029
:101AF0001E4908621D48C06920B902211D48FFF730
:101B0000F9FB03E002211B48FFF7F6FB1748C06909
:101B100060B91648C06A42F6E061884206D90120E1
:101B20001249C86102211348FFF7E6FB0F48406ADB
:101B300028B94FF400510E48FFF7DEFB04E04FF4E4
:101B400000510B48FFF7D6FB0848806928B94FF4CD
:101B500080510748FFF7CEFB07E004488069012861
:101B600003D101030248FFF7C7FB10BD1C1B002077
:101B7000000802400004024000BFFEE7704700007A
:101B800070B5002100230F22C4781CB3174C2468C1
:101B900004F4E064C4F5E064C4F30721C1F1040473
:101BA000E3B20A4144789C40E1B284781440214376
:101BB0000C07210E0E4C05786155047804F01F05C2
:101BC0000124AC4005786D11AD0005F1E025C5F8A4
:101BD000004109E0047804F01F050124AC40054DE4
:101BE0000678761145F8264070BD00000CED00E047
:101BF00000E400E080E100E002490143024A116094
:101C0000704700000000FA050CED00E0704700008E
:101C100010B5002007490870074908700548017889
:101C2000002000F00BF804480178022000F006F8CC
:101C300010BD0000A7000020A800002013B59DF8EB
:101C40000000F8B1022836D19DF8040050B91B48B5
:101C5000006820F040001949086080211848FFF70B
:101C60004BFB0EE09DF8040001280AD113480068E0
:101C700020F0400040301149086080211048FFF7F3
:101C800039FB18E09DF8040040B902210C48FFF729
:101C900031FB04210B48FFF72DFB0BE09DF80400FE
:101CA000012807D104210748FFF726FB0221044839
:101CB000FFF722FB00BF00BF1CBD00002400002076
:101CC00000080240001002407047000029B1064A97
:101CD00012680243044B1A6004E0034A126882430C
:101CE000014B1A60704700003038024029B1064AA3
:101CF00012680243044B1A6004E0034A12688243EC
:101D0000014B1A60704700004038024029B1064A72
:101D100012680243044B1A6004E0034A12688243CB
:101D2000014B1A60704700004438024008B500F0CB
:101D300039F8012000F010F900F052F91849087044
:101D400008460078012829D1002000F025F902205A
:101D500000F03AF9002000F0F3F84FF4A05000F042
:101D600003F94FF4805000F00BF904200223A8225D
:101D700001460090000500F015F9012000F00CF973
:101D800000BF392000F0B4F80028FAD0022000F09B
:101D90001BF900BF00F0CCF80828FBD108BD0000FB
:101DA0005A0100201448006840F001001249086000
:101DB00000201149083108600F4800680F490840A9
:101DC0000D4908600E48091D08600E480A49843113
:101DD00008600B481038091D08600748006820F4A7
:101DE000802005490860002003490C310860024941
:101DF0008C3108607047000000380240FFFFF6EAAF
:101E00001030002400300020F0B500210022002412
:101E1000022500260223324F3F6807F00C0121B152
:101E2000042905D0082937D105E02E4F076036E098
:101E30002D4F076033E02A4F3F1F3F68C7F380569E
:101E4000274F3F1F3F6807F03F036EB1264FB7FB98
:101E5000F3F7DFF88CC0ACF1040CDCF800C0CCF375
:101E6000881C07FB0CF40CE01E4FB7FBF3F7DFF800
:101E700070C0ACF1040CDCF800C0CCF3881C07FB8C
:101E80000CF4174F3F1F3F68C7F301477F1C7D00CD
:101E9000B4FBF5F7076002E0124F076000BF00BF18
:101EA0000F4F3F6807F0F0010909104F7A5C07688F
:101EB000D74047600A4F3F6807F4E051890A0B4F4B
:101EC0007A5C4768D7408760054F3F6807F46041F8
:101ED000490B064F7A5C4768D740C760F0BD0000E9
:101EE000083802400024F40000127A001400002098
:101EF00010B501460022002300204A11012A02D118
:101F00000A4C236808E0022A03D1084C7034236885
:101F100002E0064C7434236801F01F02012494404F
:101F20001C400CB1012000E0002010BD0038024030
:101F30000248006800F00C007047000008380240BA
:101F400001460020034A106820F0F00008431060AA
:101F500070470000083802400021024A1170114603
:101F6000087070470238024001460020034A10689A
:101F700020F4E05008431060704700000838024029
:101F800001460020034A106820F4604040EAC10086
:101F90001060704708380240014908667047000029
:101FA0000000474270B5049C41EA82150126C6EB49
:101FB000530645EA0645054345EA0465014E35608A
:101FC00070BD00000438024001460020034A10683A
:101FD00020F00300084310607047000008380240FA
:101FE00038B5002000900024002500BF3120FFF705
:101FF0007FFF05460098401C00900098B0F5A04F68
:1020000001D0002DF2D03120FFF772FF08B101247A
:1020100000E00024204638BD17B581B0044601F029
:10202000A5FFA02001F068FF01F0CCFF00B135E072
:10203000BDF80810C8B201F05FFF01F0C3FF00B1A6
:102040002CE001F093FFA12001F056FF01F0BAFF50
:1020500000B123E00020009015E001F01FFFBDF863
:1020600000106054BDF80C00401EBDF800108842FE
:1020700002D001F0BDFE01E001F0FAFEBDF8000063
:10208000401C80B20090BDF80000BDF80C108842E2
:10209000E3DB01F085FF012004B010BD01F080FFFB
:1020A0000020F9E710B54FF48C7200210248FFF7C9
:1020B000B3FF044610BD0000001E002003B583B02E
:1020C00000200290BDF80C004FF4C05141EA4030AE
:1020D000BDF8101040EAC11040F05800401C80B21A
:1020E0000290BDF808004FF6FF7101EA80000290EF
:1020F00004210A48FFF7FEF8BDF80800FEF7E8FDE6
:102100000190FEF7C5FC04210448FFF7F5F8FEF73F
:10211000BFFCBDF8040005B000BD0000000C02408B
:1021200021B1028842F04002028004E002884FF6AA
:10213000BF731A40028070470246002013890B408B
:102140000BB1012000E000207047014688897047EC
:102150008181704710B50022028802F441520B8839
:102160004C8823438C882343CC8823430C89234306
:102170004C8923438C892343CC8923431A4302800F
:10218000838B4FF2FF74234083830B8A038210BD3D
:10219000704700002DE9F04FB7B083460D46002090
:1021A0003690C82104A8FEF7EEFAFF200390002025
:1021B000029000270024285D3C2809D1ABF10200E1
:1021C000285C0D2804D1ABF10100285C0A2807D057
:1021D00002222846369900F0B9F937B0BDE8F08FF1
:1021E0003C222046611C8CB204A90A540819CEA1D5
:1021F000369AFEF75DF80122CCA104A8FEF76CF92F
:1022000004A8FEF77BF984B204A8FEF777F902462A
:1022100004A901902846FEF790F90390039828B18D
:1022200002222846369900F091F9D6E74FF00009CE
:1022300068E109EBC901BE4A8818FEF75FF9C0B230
:10224000029009EBC902BA4BD1182819029AFEF77D
:1022500074F903900398002875D13E2028700298E5
:10226000204484B2B9F1000F09D0B9F1010F58D060
:10227000B9F1020F68D0B9F1030F73D1FFE0052760
:10228000285D3F2846D1AB49CA6A2819AAA1FEF7A2
:102290000FF8E01984B22C222046611C8CB22A541B
:1022A000A4494A6B2819A4A1FEF702F8E01984B2E8
:1022B0002C222046611C8CB22A549E498A6A281915
:1022C0009DA1FDF7F5FFE01984B22C222046611C88
:1022D0008CB22A5497490A6B281997A1FDF7E8FF99
:1022E000E01984B22C222046611C8CB22A549149F8
:1022F0008A6B281990A1FDF7DBFFE01984B20D224B
:102300002046611C8CB22A540A222046611C8CB2E1
:102310002A5405E002222846369900F017F95CE7B6
:10232000EAE00127285D3F280FD1281984490A785F
:1023300084A1FDF7BDFFE01984B20A222046611C8A
:102340008CB22A5443E0D9E042E04FF0010A002663
:102350000DE0A119685CFFF7FDF9012803D10AF02F
:10236000010A02E0C2E04FF0000A701CC6B2BE4291
:10237000EFDBBAF1010F03D1E019285C0D2805D07D
:1023800002222846369900F0E1F826E70026B046FA
:102390000AE02046611C8CB2285C303808EB8801CA
:1023A00000EB4108701CC6B2BE42F2DBB8F1050F6B
:1023B00005D901222846369900F0C8F80DE7604992
:1023C00081F800800A222046611C8CB22A5493E0D6
:1023D0000127285D3F280DD128195B490A7859A1AA
:1023E000FDF766FFE01984B20A222046611C8CB218
:1023F0002A5443E04FF0010A00260CE0A119685C62
:10240000FFF7A8F9012802D10AF0010A01E04FF014
:10241000000A701CC6B2BE42F0DBBAF1010F03D154
:10242000E019285C0D2805D002222846369900F0D4
:102430008DF8D2E60026B0460AE02046611C8CB238
:10244000285C303808EB880100EB4108701CC6B2EC
:10245000BE42F2DBB8F1050F05D9012228463699B4
:1024600000F074F8B9E63648007800BF344981F8C6
:1024700000800A222046611C8CB22A543CE00127CD
:10248000285D3F280DD128192F490A782DA1FDF785
:102490000FFFE01984B20A222046611C8CB22A5434
:1024A00023E00026B0460AE02046611C8CB2285C7E
:1024B000303808EB880100EB4108701CC6B2BE4200
:1024C000F2DBB8F1050F05D901222846369900F054
:1024D0003DF882E61A48007800BF194981F800806B
:1024E0000A222046611C8CB22A5405E002222846AA
:1024F000369900F02BF870E600BF07E009F1010003
:1025000000F0FF09B9F1120FFFF693AE00BFB9F169
:10251000120F05DB02222846369900F017F85CE618
:10252000601C80B259E60000256400002F00000006
:10253000B6000020001E0020253035640000000099
:10254000A100002025316400A80000202DE9F843F7
:1025500005460E4617460024A046002000908146FE
:1025600028603E222146641C6A54324626A16846F1
:10257000FDF79EFE6846FDF7C1FF814628194A46D1
:102580006946FDF7A9FF04EB090084B22F2220461B
:10259000611C8CB22A54012F04D0022F0AD0032FC1
:1025A00018D10FE04FF009082819424617A1FEF78D
:1025B00054F817E04FF008082819424616A1FEF714
:1025C0004CF80FE04FF008082819424615A1FEF715
:1025D00044F807E04FF00808281942460EA1FEF71C
:1025E0003CF800BF00BF04EB080084B20D22204677
:1025F000611C8CB22A540A222146601C84B26A549F
:102600002046BDE8F8830000256400005041524197
:102610002045525221000000434D44204552522192
:102620000000000052454D2045525221000000009C
:102630000CB50020019000903448006840F48030D0
:102640003249086000BF3148006800F40030009053
:102650000198401C0190009818B90198B0F5A04F5E
:10266000F1D12A48006800F4003010B10120009038
:1026700001E0002000900098012846D12348403016
:10268000006840F0805021494031086020480068CF
:1026900040F440401E4908601C48083000681B494F
:1026A000083108600846006840F4004008600846A9
:1026B000006840F4A05008601648091F0860081F11
:1026C000006840F08070091F086000BF0F48006874
:1026D00000F000700028F9D040F205700E49086043
:1026E0000A480830006820F00300084908310860F3
:1026F0000846006840F00200086000BF0348083048
:10270000006800F00C000828F8D10CBD0038024029
:102710000070004019544007003C024010B500F022
:10272000E7FC22480068401C2049086020480078E7
:10273000401C1F490870084600780A2808DD002060
:1027400008701C48006820F008000830194908602B
:1027500019480088401C1849088008460088142839
:1027600008DD002008801348006820F080008030D9
:10277000104908601148007800F0010020B11048AD
:102780000078401C0E4908700D48007828280BDDA1
:1027900000200B4908700948006820F00100074933
:1027A000086000200749087010BD00006801002083
:1027B000710000202400002058000020300000207C
:1027C000B0000020AE00002030B51A4800684FF479
:1027D000FA72B0FBF2F1481EB0F1807F01D3012004
:1027E0001BE0481E4FF0E022506150170F220028D6
:1027F00007DA13071D0E104B00F00F04241F1D55A0
:1028000003E013071C0E0D4B1C5400BF00204FF0BB
:10281000E022906107201061002008B100BFFEE7B0
:102820004FF0E020006940F001004FF0E021086126
:1028300030BD00000000002018ED00E000E400E0E2
:1028400010B51548006840F470001349086013483B
:10285000006840F001001149086000200F4908316C
:1028600008600E4800680E4908400C4908600D4891
:10287000091D0860081F006820F48020091F0860F7
:10288000002006490C310860FFF7D2FE4FF00060CF
:1028900001498039086010BD88ED00E00038024031
:1028A000FFFFF6FE103000241CB50122072114485A
:1028B000FEF7F4FC012208211148FEF7EFFC80200E
:1028C000009002208DF8040000208DF80600022000
:1028D0008DF8050069460A48FEF798FC4FF48070B1
:1028E000009002208DF8040000208DF806000220E0
:1028F0008DF8050069460248FEF788FC1CBD000003
:102900000000024010B588B001210846FFF7FEF92B
:10291000FFF7CAFF0420ADF814000020ADF8160040
:1029200006904FF40070ADF81C0000208DF81E00DA
:1029300005A91F4800F082FB7020ADF800000120BF
:10294000ADF802000420ADF804000020ADF80C0042
:10295000ADF80E00ADF81000ADF8120045F6C0500D
:1029600002906946124800F075FA48F2E8001149F1
:10297000088008210E4800F0ABFA0E4801880C4888
:1029800000F053FB01210A4800F01FFA012108481A
:1029900000F02AFA0121064800F032FA05480488BE
:1029A00004EBD4704110024800F041FB08B010BDA8
:1029B00000000140AC00002010B52DED028B9FED12
:1029C0007C0AB0EE408A9FED7A0AF0EE408A00243D
:1029D0000121784800F023FA01287DD1764800686B
:1029E0007649884202D9002073490860744800681B
:1029F0007249884202D90020714908607148007804
:102A0000072805D2DFE800F004057273B0B1B20008
:102A1000ADE06D480078012867D16C480078012846
:102A200063D16748006801285FD96948B0F8D600CB
:102A300000EE100AB8EE400ADFED660A80EE201ABA
:102A4000F0EE418A624890F8DC40012C00DA012463
:102A5000614890ED000AB5EEC00AF1EE10FA14D00C
:102A60005E4890ED000A5C48D0ED000AB4EEE00A42
:102A7000F1EE10FA09D2002053490870FFF7C8F8A8
:102A80005348B0F8D400524948614F48007860B3C9
:102A9000524890ED000A5048D0ED000AB4EEE00A2A
:102AA000F1EE10FA05DD4D4890ED000A4A4880ED40
:102AB000000A41480068B0FBF4F104FB1100A0B922
:102AC000474890ED000A30EE280A80ED000A90EDAC
:102AD000000ADFED400A00E066E020EE200ABDEECD
:102AE000C00A10EE100A3A49486140E03FE032481F
:102AF00000684FF47A71B0FBF1F201FB120090BB59
:102B00002D480068B0F57A7F2DD330480078012831
:102B100011D1324890ED000ADFED2E0A20EE200A96
:102B2000F7EE000A20EE200ADFED2E0A80EE201AD2
:102B3000B0EE418A10E02C4890ED000ADFED250A46
:102B400020EE200AF7EE000A20EE200ADFED250A2B
:102B500080EE201AB0EE418A244890ED000A30EE53
:102B6000080A80ED000A02E001E000E000BF00BFBB
:102B7000114800684FF47A71B0FBF1F201FB1200CA
:102B800048B90D480068B0F57A7F04D30C48006856
:102B9000401C0B49086008480068401C0649086052
:102BA0000121044800F01DF9BDEC028B10BD0000AE
:102BB000000000000004004064010020FEFFFF7FD1
:102BC00060010020A100002065180020A80000205E
:102BD000001E002000007A4424100020780100200C
:102BE00028100020000061457C01002060180020B2
:102BF0007FB505460C4601210220FFF777F80295C4
:102C0000ADF804400020ADF80600ADF80C0001A9B5
:102C10000D4800F013FA012211460B4800F010F99C
:102C20001D208DF8000001208DF8010003208DF893
:102C3000020001208DF803006846FEF7A1FF012184
:102C4000014800F0D1F87FBD000400401CB502220D
:102C500008211448FEF722FB022209211148FEF741
:102C60001DFB4FF48070009002208DF804000020BE
:102C70008DF8060002208DF8050069460948FEF728
:102C8000C5FA4FF40070009002208DF80400002077
:102C90008DF8060002208DF8050069460148FEF710
:102CA000B5FA1CBD0004024000B589B00121042022
:102CB000FFF71CF8FFF7CAFF0620ADF81800002048
:102CC000ADF81A000790ADF820008DF8220006A993
:102CD0001E4800F0B3F96020ADF804000120ADF803
:102CE00006000420ADF808000220ADF81000002016
:102CF000ADF812004FF48070ADF814000020ADF86C
:102D000016000F20039001A9104800F0EBF80821ED
:102D10000E4800F037F901A90C4800F03DF90821F0
:102D20000A4800F075F947F23051084800F07DF983
:102D30000121064800F049F80121044800F054F848
:102D40000121024800F05CF809B000BD0008004015
:102D50000EB501211020FEF7C9FF0220ADF80000DA
:102D60000020ADF802000190ADF808008DF80A00CF
:102D70006946094800F062F901221146064800F050
:102D80005FF8FF21044800F050F900F00FF801212E
:102D9000014800F029F80EBD0010004010B50121D7
:102DA000014800F01EF810BD0010004008B53620A4
:102DB0008DF8000001208DF801008DF802008DF8DB
:102DC00003006846FEF7DCFE08BD21B1028842F030
:102DD0008002028004E002884FF67F731A4002806E
:102DE0007047CA430282704721B1028842F0010253
:102DF000028004E002884FF6FE731A40028070479A
:102E000031B1B0F8442042F40042A0F8442005E07B
:102E1000B0F84420C2F30E02A0F84420704730B549
:102E20000246002000230024158A05EA0103958943
:102E300005EA010413B10CB1012000E0002030BD0F
:102E40001AB183890B43838102E083898B43838199
:102E50007047000070B5002400220023058C4FF657
:102E6000FE7635400584028C8388048B4FF68F757F
:102E70002C40B51E2C400D882C43751E2A408D8990
:102E80002A434D882A43104DA84202D00F4DA84234
:102E900013D14FF6F7752A40CD892A434FF6FB75BB
:102EA0002A408D882A434FF6FF652B404FF6FF5589
:102EB0002B400D8A2B434D8A2B43838004838D68DE
:102EC0004563028470BD0000000001400004014021
:102ED0000A460021018B4FF6F77319401143018315
:102EE0007047000070B5002400220023058C4FF6C7
:102EF000FF6635400584028C8388848B4FF68F757E
:102F00002C404FF6FC752C400D882C434FF6FF5596
:102F10002A408D894FF6FF7606EA05252A434D881B
:102F200006EA05252A43154DA84202D0144DA842B1
:102F30001DD14FF2FF752A40CD894FF6FF7606EA84
:102F400005252A434FF6FF352A408D8806EA0525D8
:102F50002A434EF6FF752B404DF6FF752B400D8A28
:102F600006EA05152B434D8A06EA05152B43838097
:102F700084838D68C563028470BD00000000014039
:102F8000000401400A460021818B4FF6F773194077
:102F9000114381837047000070B500220023002494
:102FA000058C4EF6FF7635400584038C8488828B31
:102FB00048F6FF752A404FF6FF452A400D884FF628
:102FC000FF7606EA05252A434DF6FF752B408D89CD
:102FD00006EA05352B434D8806EA05352B430A4D95
:102FE000A84202D0094DA84208D14BF6FF752C40EB
:102FF0000D8A4FF6FF7606EA85152C43848082837E
:103000008D680564038470BD000001400004014028
:103010000A460021818B4FF2FF7319404FF6FF7370
:1030200003EA0223194381837047C16270474163F9
:103030007047C16370470164704700000022028836
:10304000184B98420ED0184B98420BD0B0F1804FDD
:1030500008D0164B984205D0154B984202D0154B1C
:10306000984204D14FF68F731A404B881A43124B83
:10307000984207D0114B984204D04FF6FF431A40B4
:103080000B891A4302804B68C3620B880385054B8A
:10309000984202D0044B984201D18B7A03860123D7
:1030A000838270470000014000040140000400409A
:1030B00000080040000C00400010004000140040D8
:1030C0001CB501210420FEF701FE4FF44070009072
:1030D00001208DF804008DF8060002208DF805000F
:1030E00069460248FEF792F81CBD00000008024045
:1030F0000448006820B103480068401E0149086088
:10310000704700006C00002008B5FE48C069002828
:1031100042D1FD4800880090FA48406C009948432D
:103120000090F84890F8CC0000F0010078B1F54824
:10313000D0F888000099884202D9002000900CE065
:10314000F048D0F888000099081A009005E0ED4892
:10315000D0F888000099084400900098000B009077
:1031600000980A2801D200200090E6490098C86221
:103170000846C06A00EE100AB8EE400AE34880ED47
:10318000000A90ED000ADFEDE20A80EE201A80EDE1
:10319000001A0020009042E0DB4800880090D948E7
:1031A000806C009948430090D64890F8CC0000F01D
:1031B000040004280FD1D348D0F88C00009988422D
:1031C00002D9002000900CE0CE48D0F88C00009985
:1031D000081A009005E0CB48D0F88C00009908440C
:1031E00000900098000B009000980A2801D200205F
:1031F0000090C4490098C8620846C06A00EE100AF0
:10320000B8EE400AC14880ED000A90ED000ADFEDFB
:10321000C00A80EE201A80ED001A00200090B94804
:10322000006AE8BBBB4800880090B648C06C0099B3
:1032300048430090B34890F8CE0000F0010078B108
:10324000B048D0F890000099884202D90020009040
:103250000CE0AC48D0F890000099081A009005E006
:10326000A848D0F890000099084400900098000BFE
:103270000090A449009848630846406B00EE100A8D
:10328000B8EE400AA44880ED000A90ED000ADFED98
:10329000A00A80EE201A80ED001A002000903DE088
:1032A000FFE79C48008800909648C06C009948430E
:1032B0000090944890F8D00000F0010078B1914857
:1032C000D0F894000099884202D9002000900CE0C8
:1032D0008C48D0F894000099081A009005E08948BD
:1032E000D0F894000099084400900098000B0090DA
:1032F0008449009848630846406B00EE100AB8EE17
:10330000400A854880ED000A90ED000ADFED800A52
:1033100080EE201A80ED001A002000907948806924
:10332000002870D17748006AA8BB764840690090B1
:10333000009800030090734890F8CE0000F004005D
:1033400078B97048D0F8A0000099884202D90020CE
:1033500000900CE06B48D0F8A0000099081A00908B
:1033600005E06848D0F8A00000990844009065483E
:10337000C06D0099B1FBF0F00090009840080090FB
:103380006649009808805F48406908B900200880B5
:1033900000200090AAE0FFE75A484069009000989A
:1033A00000030090574890F8CF0000F0040078B96F
:1033B0005448D0F8A4000099884202D90020009017
:1033C0000CE05048D0F8A4000099081A009005E0DD
:1033D0004C48D0F8A4000099084400904948006E79
:1033E0000099B1FBF0F000900098400800904B4924
:1033F000009808804348406908B9002008800020F0
:10340000009073E0FFE73F48806901286ED13D4896
:10341000C069A8BB3B480069009000980003009079
:10342000384890F8CE0000F0040078B93548D0F85C
:1034300098000099884202D9002000900CE03148A1
:10344000D0F898000099081A009005E02D48D0F8AF
:1034500098000099084400902A48406D0099B1FBFB
:10346000F0F000900098400800902C4900980880E7
:103470002448006908B9002008800020009035E049
:10348000FFE72048006900900098000300901D4865
:1034900090F8CE0000F0040078B91A48D0F89C00EB
:1034A0000099884202D9002000900CE01548D0F81D
:1034B0009C000099081A009005E01248D0F89C0082
:1034C0000099084400900F48806D0099B1FBF0F01E
:1034D0000090009840080090104900980880094822
:1034E000006908B900200880002000900548406A63
:1034F000F0BB0B48008800900248806F0099484359
:1035000000900FE0001E0020480000207001002005
:1035100000007A444600002078010020540000207A
:103520004A000020F84890F8D00000F0010078B17F
:10353000F548D0F8BC000099884202D900200090DC
:103540000CE0F148D0F8BC000099081A009005E0A2
:10355000ED48D0F8BC000099084400900098000B9A
:103560000090009808B900200090E749009800E01A
:1035700003E088630020009030E0E4480088009079
:10358000E148C06F009948430090DF4890F8D000B0
:1035900000F0040004280FD1DB48D0F8C0000099E7
:1035A000884202D9002000900CE0D748D0F8C00033
:1035B0000099081A009005E0D348D0F8C00000999F
:1035C000084400900098000B0090009808B9002073
:1035D0000090CD490098886300200090CC48008876
:1035E0000090C948406E009948430090C64890F842
:1035F000D10000F0010078B1C348D0F8A8000099CC
:10360000884202D9002000900CE0BF48D0F8A80002
:103610000099081A009005E0BB48D0F8A80000996E
:10362000084400900098000B00900098282801D2D0
:1036300000200090B449009888620846806A00EE35
:10364000100AB8EE400AB34880ED000A90ED000A77
:103650005FED510A80EE201A80ED001A00200090E4
:10366000AD4800880090AD480078C0F3C010C0B3EA
:103670000846806E009948430090A34890F8D20015
:1036800000F0010078B1A048D0F8AC000099884261
:1036900002D9002000900CE09B48D0F8AC000099C3
:1036A000081A009005E09848D0F8AC00009908444A
:1036B00000900098000B009093490098086308461A
:1036C000006B00EE100AB8EE400A954880ED000A43
:1036D00090ED000A5FED720A80EE201A80ED001A6C
:1036E00039E0FFE78848C06E00994843009086485B
:1036F00090F8D20000F0080008280FD18248D0F8D6
:10370000B0000099884202D9002000900CE07E4869
:10371000D0F8B0000099081A009005E07A48D0F877
:10372000B0000099084400900098000B0090764982
:10373000009808630846006B00EE100AB8EE400AD5
:10374000774880ED000A90ED000A5FED8F0A80EE69
:10375000201A80ED001A6C488068009000980003E1
:103760000090694890F8D10000F0040078B96648EC
:10377000D0F8B4000099884202D9002000900CE0F3
:103780006148D0F8B4000099081A009005E05E483E
:10379000D0F8B4000099084400905B48006F00998D
:1037A000B1FBF0F000900098400800905D4900984F
:1037B00008805548806808B90020088000200090E3
:1037C0005148C06800900098000300904E4890F85F
:1037D000D20000F0040078B94B48D0F8B800009946
:1037E000884202D9002000900CE04748D0F8B80089
:1037F0000099081A009005E04348D0F8B8000099F5
:10380000084400904048406F0099B1FBF0F00090F0
:103810000098400800904449009808803A48C068E1
:1038200008B90020088000200090404800884FF42C
:103830007A7148433D4909884FF6FF72511A90FB4F
:10384000F1F000903048D0F8800000994843009093
:103850002D4890F8D30000F0010078B12A48D0F844
:10386000C4000099884202D9002000900CE026484C
:10387000D0F8C4000099081A009005E02248D0F85A
:10388000C4000099084400900098000B0090009834
:1038900008B9002000901C490098C86300200090DF
:1038A0002348008800900846D0F8840000994843D7
:1038B0000090154890F8D30000F0040004280FD1C0
:1038C0001148D0F8C8000099884202D90020009021
:1038D0000CE00D48D0F8C8000099081A009005E0E7
:1038E0000948D0F8C8000099084400900098000BDF
:1038F0000090009808B90020009003490098C86320
:103900000020009008BD0000001E00204A0000209A
:1039100042000020740100204400002034000020F8
:103920007C01002050000020520000204C000020AC
:103930004E00002010B52848006820F00100401C0F
:103940002549086040F22551244800F04EF900282E
:1039500040D0224800F002FA2149224A12788854C5
:1039600020480078401C1F49087008460078072846
:1039700030DD1B484078102819D11948807908306B
:103980000978884226DA002016490870164800682F
:1039900020F020002030144908600F48006820F013
:1039A00001000D49086000201049087012E0002055
:1039B0000C4908700C48006820F0200020300A49AB
:1039C00008600548006820F00100034908600020F5
:1039D0000649087010BD00003000002000100140B2
:1039E000601B0020AE00002024000020B00000205A
:1039F00000B587B001214804FEF778F907220221BB
:103A00002248FDF74BFC072203212048FDF746FC26
:103A10000420059002208DF8180000208DF81A006F
:103A200002208DF8190005A91848FDF7EFFB0820C2
:103A3000059002208DF8180005A91448FDF7E6FB53
:103A40004FF4E13001900020ADF80800ADF80A0015
:103A5000ADF80C00ADF810000C20ADF80E0001A977
:103A60000B4800F011F9012240F22551084800F0FE
:103A7000E6F80121064800F09FF84021044800F0D4
:103A800083F800F06DF807B000BD000000000240B0
:103A90000044004010B540F225512D4800F0A5F833
:103AA000002853D040F22551294800F076F82848E4
:103AB00000F054F9C4B22748008800F40040002800
:103AC00044D12448008800F48040D8B10A2C03D0A7
:103AD00000202049088039E01E480088C0F30D000E
:103AE0001D490C541B480088401C1A490880084690
:103AF00000881A4908801748008840F4004015499A
:103B0000088023E00D2C10D112480088C0F30D006E
:103B100011490C540F480088401C0E490880084683
:103B2000008840F48040088010E00A480088C0F314
:103B30000D0009490C5407480088401C05490880BD
:103B400008460088C72801DD0020088010BD00005D
:103B500000440040B2000020841B0020B40000207C
:103B600008B54FF4E060FEF747F826208DF8000016
:103B700000208DF8010001208DF802008DF803006F
:103B80006846FDF7FDFF08BD01F40072B2F5007F45
:103B900000D100BFCA430280704710B50022002345
:103BA00040F66A14A14200D100BF0A1201249440D9
:103BB000A3B2DC43048010BD21B1828942F40052DB
:103BC000828104E082894DF6FF731A40828170473A
:103BD00002460020B1F5007F00D100BF13880B40E2
:103BE0000BB1012000E00020704770B502460024B0
:103BF00000230025002040F66A16B14200D100BF24
:103C0000C1F3421501F01F03012606FA03F3012D4B
:103C100002D19689334006E0022D02D1168A334044
:103C200001E0968A33400C12012606FA04F4168845
:103C3000344013B10CB1012000E0002070BDF0B59C
:103C40000346002400260025002040F66A17B942EA
:103C500000D100BF1846C1F3421401F01F0601272E
:103C600007FA06F5012C01D10C3004E0022C01D139
:103C7000103000E014301AB107682F43076002E0EB
:103C80000768AF430760F0BD2DE9FF4705460E46C4
:103C90000024A14600BFA046B08900B100BF2C8A15
:103CA00024F44054F08804432C82AC8941F20C6027
:103CB0008443B08831890843718908430443AC8147
:103CC000AC8A24F44074B0890443AC826846FEF7A1
:103CD0009BF82048854202D01F48854202D1DDF87A
:103CE0000C9001E0DDF80890A88900F4004040B194
:103CF00009EBC90000EB091031684900B0FBF1F78E
:103D000007E009EBC90000EB091031688900B0FB3E
:103D1000F1F76420B7FBF0F004012009642101FBF6
:103D20001078A88900F4004040B1322000EBC800B0
:103D3000B0FBF1F000F00700044308E0322000EB94
:103D400008106421B0FBF1F000F00F0004432C8157
:103D5000BDE8FF870010014000140140014688883B
:103D6000C0F308007047C1F308028280704700BFAB
:103D7000FEE70000064910B509684A6B824206D08A
:103D80004863FDF7F1FCBDE81040FDF76FBE10BDC4
:103D90008C190020064910B509680A6B824206D0CA
:103DA0000863FDF7E1FCBDE81040FDF771BE10BDF2
:103DB0008C19002030B509490B681A7C82EA00048E
:103DC000640707D59C6BDB6B25681B6823600B6859
:103DD000DB6B1D6009680874104630BD8C1900202B
:103DE00030380A2801D201207047002070470000B7
:103DF00010B508210A48FDF77DFA00F02BF84021A4
:103E00000748FDF779FA00F025F840210448FDF74E
:103E100071FA00F01FF808210148FDF76DFA10BD96
:103E2000000C02401CB501210820FDF74FFF48207F
:103E3000009001208DF804008DF8060002208DF816
:103E4000050069460248FDF7E1F900F0A9F81CBD3C
:103E5000000C024008B50020009004E09DF800002E
:103E6000401CC0B200909DF800006428F6DB08BD3D
:103E700010B508210848FDF73FFAFFF7EBFF402196
:103E80000548FDF739FAFFF7E5FF40210248FDF745
:103E900031FAFFF7DFFF10BD000C02401CB5002017
:103EA000009001901FE09DF800004006000E009079
:103EB00040211048FDF720FAFFF7CCFF08210D48FC
:103EC000FDF70FFA20B19DF80000401CC0B2009031
:103ED00040210848FDF70EFAFFF7BCFF9DF80400EB
:103EE000401CC0B201909DF804000828DBDB9DF85F
:103EF00000001CBD000C024001B582B00020019002
:103F00002DE09DF8080000F0800020B1082116483F
:103F1000FDF7F2F903E008211348FDF7EBF9FFF78D
:103F200099FF40211048FDF7E7F9FFF793FF402183
:103F30000D48FDF7DFF99DF80400072803D108219B
:103F40000948FDF7D9F99DF808004006000E0290D7
:103F5000FFF780FF9DF80400401CC0B201909DF85F
:103F600004000828CDDB0EBD000C024010B508216E
:103F70000A48FDF7C1F940210848FDF7BDF9FFF7F0
:103F800069FF08210548FDF7B5F9FFF763FF4021F8
:103F90000248FDF7AFF9FFF75DFF10BD000C0240CE
:103FA00010B508210648FDF7A5F940210448FDF7A2
:103FB000A3F9FFF74FFF08210148FDF79DF910BD58
:103FC000000C024008B508210E48FDF795F9FFF7EF
:103FD00041FF40210B48FDF78FF9FFF73BFF082118
:103FE0000848FDF77EF910B10120009001E00020A3
:103FF000009040210348FDF77DF9FFF72BFF9DF866
:10400000000008BD000C0240002400260121080326
:10401000FDF75CFEFDF78AFEFEF7D6FBFDF776F8AE
:1040200000204349086043490860FEF76BFCFEF737
:104030003BFE42F2CF010920FEF7DAFDFEF788FED3
:10404000FCF764FEFFF7D4FCFFF7ECFEFFF738F84F
:10405000FCF7B0FCFCF72CFD002037494862FEF766
:1040600021F8FDF7D5FD0020334988610120C861A2
:104070000020086202213148FDF73EF9304800680F
:1040800020F040002E4908602E48006820F0800093
:1040900080302C4908604AE02B48008800F400403A
:1040A000F8B12A4806782A493046FEF773F80546E3
:1040B000002600240CE02648015D2648FFF753FE49
:1040C00000BF40212348FFF783FD0128F9D1641C7C
:1040D000AC42F0DBC8211E48FCF733FB00201A4934
:1040E00008801D4801881D48FEF7A3FF1C48018871
:1040F0001A48FEF7A0FF1B480088FCF773FCFDF789
:10410000D9FC19480078C0F3C00008B9FEF7FCFFDD
:104110000B480078C0F3400038B10948006820F02F
:10412000020007490860FCF773FEFCF72FFDB3E7B8
:1041300060010020640100201C1B002000080240D8
:104140002400002034000020B2000020B400002031
:10415000841B002000440040500000200008004064
:104160005200002054000020280000204FF0407032
:10417000E1EE100A7047000000C0C0C0C0C0C0C05F
:104180000000E0E0367E6CD8363636FF6C6C6CFF93
:104190006C6C6C3078FCFCF070383C3CFCFC78308B
:1041A0003066F6FCFCFC7E1F3F3F3F6638006C002B
:1041B0006C006C0078007F00F600DE00CC00CD8043
:1041C0007F00707030E018306060C0C0C0C0C0C0F8
:1041D00060603018C0603030181818181818303067
:1041E00060C01818FF3C3CFF181818181818FF1862
:1041F000181818707030E0FFE0E00306060C0C1889
:104200001830306060C0C0386CC6C6C6C6C6C6C6E8
:104210006C3830F03030303030303030FC7CC6C656
:10422000C60C0C183060C6FE7CC6C60C380C0606E0
:10423000C6CC780C1C3C6C6CCCCCFE0C0C3EFEC08E
:10424000C0C0F8EC0606C6CC783C6CC0C0F8ECC622
:10425000C6C66C38FECCCC18183030303030307CCC
:10426000C6C6C66C386CC6C6C67C386CC6C6C66EBA
:104270003E06066C78E0E000000000E0E060000030
:104280000000006060C0060C183060C06030180C80
:1042900006FF000000FFC06030180C060C183060EC
:1042A000C07CC6C6E6060C18180038383C667FFF8E
:1042B000FFFFFFFE63663C180018001C003C003C3A
:1042C0000036003E00660063006300F780FC66660F
:1042D000667C6663636366FC3F6363C0C0C0C0C046
:1042E00063663CFC666363636363636366FCFE63EF
:1042F0006C6C7C6C6C606363FEFE636C6C7C6C6CE1
:10430000606060F03E6666C0C0C0CFC666663CF7BF
:104310008063006300630063007F006300630063E9
:10432000006300F780FC303030303030303030FC0B
:104330003F0C0C0C0C0C0C0C0C0C0CCCF8FF666C31
:104340007878786C6C6666FFF060606060606060D2
:104350006063FFFF7E7E7E7E7E7E7E7E7EFFE780C8
:10436000730073007B007B006F006F006F006700BD
:104370006700F3003C66C3C3C3C3C3C3C3663CFE4C
:10438000636363637E60606060F03C66C3C3C3C305
:10439000C3FBEF6E3C07FE006300630063007E001A
:1043A0006C006C00660066006300F3807EC6C6C0C9
:1043B00060380C06C6C6FCFFDB1818181818181849
:1043C000183CF780630063006300630063006300D0
:1043D0006300630063003E00F780630063006600D3
:1043E000360036003C003C001C0018001800FFDBC3
:1043F000DBDBDBFFFF7E666666F780630036003638
:10440000001C001C001C00360036006300F780FF13
:1044100066663C3C18181818183C7FC6060C0C1829
:1044200030306363FEF8C0C0C0C0C0C0C0C0C0C0F0
:10443000C0C0F8C0C0606030303018180C0C0C06DA
:1044400006F8181818181818181818181818F878DE
:10445000CCFF807CC63E66C6C67F00E06060607CA4
:1044600076636363767C3C66C0C0C0663C000E0623
:1044700006063E66C6C6C66E3F7CC6FEC0C0C67C8B
:104480001F333030FE3030303030FC7ECCCC78C042
:104490007CC6C67C0000E0006000600060007E001A
:1044A00073006300630063006300F78070700000B6
:1044B000F03030303030FC1C1C00003C0C0C0C0C7C
:1044C0000C0CCCF800E06060606F6C787C6C66FF70
:1044D000F0303030303030303030FCFF006D806DE7
:1044E000806D806D806D80FF80FE007300630063CF
:1044F0000063006300F7807CC6C6C6C6C67CFC7637
:10450000636363667C60F03E66C6C6C6663E060FA1
:10451000FF3B30303030FC7EC6C07C06C6FC3030FD
:10452000FC30303030301CE7006300630063006310
:104530000067003F80F7806300360036003C0018BB
:10454000001800FF80DB00DB00FF00FF0066006654
:1045500000FE6C3838386CFEF78063003600360099
:104560003C001C0018001800F000FECC183030662B
:10457000FE386060606060C060606060606038C02D
:10458000C0C0C0C0C0C0C0C0C0C0C0C0C0C0C0E00B
:10459000303030303018303030303030E07180DD45
:1045A00080C7001F00318060C0C060C060C060C0B4
:1045B0006060C03180DB60FBE003000300030003A8
:1045C000000300030003FC030003000300030003D7
:1045D0000003000300FFFFFFFF03000300030003CD
:1045E00000036003300318030C030C0300030003F3
:1045F00000030003000600060006000600FFF0C6E8
:1046000030C630C630C630C630FFF0C630060006B1
:10461000000600060003000180FFFF060006000CF4
:104620003018183FFC066C0660066006600C660CCD
:10463000661866703E18180C180C3000003FFC011C
:104640008001800180FFFF018003C003C006600C71
:1046500030381CE007030003000300FFFCC30CC359
:104660000CC30CC78CC6CCCC6CD83CF03CC00CC086
:104670000CC03CC018030003006318631863186380
:10468000187FF8031803000300C30CC30CC30CC34A
:104690000CFFFC000C0060066006300C301818306F
:1046A0000C6006DFF30630063006300C300C301894
:1046B0003031E060C00606360636063FF66636063E
:1046C00036FFF6063606363FF636F636F637C63786
:1046D00086061E060C3FFF300030C030C030C030B0
:1046E000C03FFE30C030C030D830CC30CC60C07F4E
:1046F000FFC000FFFCC60CC60CCFECDCCCF78CC3B3
:104700000CCFCCF87CC70CC18CCE0CC38CFFFCC08A
:104710000C00067FC61B361B361B36FFF61B3633D6
:1047200006331E618CC1803FFC01800180FFFF01C8
:10473000800180FFFF01807FFE00003FFC318C3153
:104740008C3FFC30003000300060006000C000187A
:1047500030183018301860FE6C36C637FF36C33656
:10476000006CFE3CC618C63CC666C6C0FE00C67FCE
:10477000FE0C300C300C300C300C30FFFF0C300CC9
:10478000300C300C301830183030306030183E1F8C
:10479000F036306630DFFF1E3037FE7786F786371B
:1047A000FE378637FE3D863D8639FE31860C300C5D
:1047B0003C7FB60C30FFFF1E3033367FF6F6363FB7
:1047C000BC363C3F98361B3FFF306730C31800199A
:1047D000FE19861986FF9E198C19801FFE1DE63969
:1047E000E6F9BC19BC199819BC79E631C3186018F0
:1047F0003018301BFFFF031EDE198C1F063800F92E
:10480000FE18301830183018307FFF300030601834
:10481000600060FFC030FF318C3FCC36CC36CC36E8
:10482000783678363066787ECCCD8603030C306DD2
:10483000B03F300C3FFFE63F666DE6CCF6183CFF1C
:104840003C33186318763C1C3C3E66E3C30300010E
:10485000800180FFFF181818180C300C3006600318
:10486000C0018003C006600C30381CE0070018004F
:1048700018FC18CC18CFFECC18CC18FC18CD98CC4E
:10488000D8CCD8CC18FC18CC18007800300CC00C50
:10489000C00CC00CC0FFFCCCCCCCCCCCCCCCCCFF66
:1048A000FCCCCCCCCCCCCCCCCCFFFCC00C186C1948
:1048B000EC19EF19F8FFFC19E639E63C607E007F41
:1048C000FED9FE19FE19FE19FE1FFF180000C06078
:1048D000C030C030FE01860D8C0F601E601860F085
:1048E000F030F031983198330C36060C030180011A
:1048F00080018001801980198019FC1980198019A4
:10490000801980198019801980FFFF0180018019AA
:10491000FC198019801980FFFF01800180198C1912
:104920009831B060E003801E00F000006030601B32
:10493000601B7CC37C63EC7BEC1F6C1B6C336CF3E7
:104940007C33633303330331FF00C030601FFF1833
:10495000C0C198630C67FE18061800336CF36C3303
:104960006C336C336F366F0C67000637E61E661EBD
:104970007EC7FE67FE67FE1FFE1FFE37FEF7FE3195
:104980008633C63366361E0C0C37FF1E301E60C7DA
:10499000FE678667FE1F861FFE37B6F63036FC3D83
:1049A000B63F3338F00060FFFF1818181818301899
:1049B000307E7C18F619B31B3318301E30F030608F
:1049C000300030060006000600FFF0C630C630C6D4
:1049D00030FFF0C630C630C630FFF0C63C060C06CD
:1049E0000C03FC300031FF3E007800D8FE18C618DA
:1049F000C6FFC618FE180018C63C66366C66006115
:104A0000FFC0000C001FFEF98619861986FFFE18EC
:104A10000038003DFF7E307E30D9FE183018301B44
:104A2000FF1800018019980DB001807FFE07E00D8E
:104A3000B01998700C0180FFFF03C006600C30387D
:104A40001CE00701F87F000C00186030C07F800375
:104A5000000E303818FFFC030C1B6033306318CF96
:104A60000C06001878186C3060367E67F0FC601811
:104A70007F33F06066FE6C603800331E7BF0CF63DE
:104A800087000318601830303033FF6C60FCCC199D
:104A90008633FF60DBFCD860D800D81D9BF19B6398
:104AA0000F06007FFE66667FFE01807FFE01801F8D
:104AB000F818181FF818181FF818181FF81818FFFA
:104AC000FF03000180FFFF000000003FFC0000002A
:104AD000003FFC000000003FFC300C300C3FFC307D
:104AE0000C3630FFB0367F7FE6C33C7F186F3C7FCB
:104AF000E70780FFFF00003FFC00003FFC300C3F59
:104B0000FC31F8199819980198030FFE001BFC1945
:104B10008C199818D81EF01C6018F0039C0E070022
:104B20003C30361836183007FF0030F8301FF019C7
:104B3000B0199819981F981DEF1F8F03070003677E
:104B4000FE3060306003FC00CCF0CC37FF3000302A
:104B50000033FC330C3F0C3B0C33FC030C0C000CFF
:104B6000001FE0306060C0FFF0303033303330334E
:104B7000303330363007C00C603830E0180C000C91
:104B8000000CFC7F0C0C0C0C0CFFFC0CCC3CC03C57
:104B9000C03FC63CC63C7E7C006FFFC00000607E0C
:104BA00060667C66CC67F87E30187818CC19877EF2
:104BB000FC78CC78CC78CC7ECCF0FC00CC0C300CE3
:104BC0003C7FB60C30FFFF18301836FFB630366C1D
:104BD0003C7FBC0C180F9BFC3F0C670CC330603053
:104BE000F03198FF0C37FF60007BE6DB7EFF7E1B19
:104BF000FE1F7EFB7E7BFE1B661B7E1BEC001830BF
:104C00001818181FFF00180018FB18199819981881
:104C1000181818187818303C0067FF00D830D818DA
:104C2000D81BFE00D800D8F8D81FFF18D818D819FC
:104C30009819981B183C0067FF006033601B601BCD
:104C4000FC06600060FFFE19B019B019B01B361BDE
:104C5000361E1E3C0067FF180019FE3FB631B661D4
:104C6000FEFFB619B619FEFE30183019FE18301EB8
:104C7000301C301BFF600037FC300CC00CC00CC077
:104C80000CC00CC00CC00CC00CC00CC00CC00CC0C4
:104C90000CC03CC018600037FC300CC00CCFCCCC32
:104CA000CCCCCCCCCCCFCCCCCCCCCCCCCCCFCCC04A
:104CB0000CC03CC018FFF8CF18DB18DB18F3F8DB8A
:104CC00018DB18CF18CFF8CF18FB18F318C318CF7C
:104CD000FEC000FFF8DE18F618F7F8E618F618DF41
:104CE000F8DECCDED8FE70F660C630C798C70EC6B8
:104CF00000030001803FFC00000C300660FFFF0055
:104D0000001FF8181818181FF8181818181FF81886
:104D1000180000000101000E0900000078410008A1
:104D2000030B030309000000794100080704010197
:104D30000900000084410008080B0003090000007E
:104D400088410008060E0102090000009341000896
:104D5000080B000309000000A1410008090B000333
:104D600009000000AC410008040400010900000033
:104D7000C2410008050E030109000000C6410008F9
:104D8000050E010109000000D441000808080004D4
:104D900009000000E24100080809000409000000C1
:104DA000EA4100080404000C09000000F341000877
:104DB0000801010809000000F74100080302010C86
:104DC00009000000F8410008080D01020900000078
:104DD000FA410008070B0103090000000742000820
:104DE000060B01030900000012420008070B010333
:104DF000090000001D420008070B01030900000024
:104E000028420008070B0103090000003342000894
:104E1000070B0103090000003E420008070B0103D5
:104E20000900000049420008070B010309000000C7
:104E300054420008070B0103090000005F4200080C
:104E4000070B0103090000006A420008030803067B
:104E5000090000007542000803090207090000006C
:104E60007D420008070B010309000000864200088C
:104E7000080500060900000091420008070B010325
:104E80000900000096420008070B0103090000001A
:104E9000A1420008080B000309000000AC42000812
:104EA000090B000309000000B7420008080B0003CB
:104EB00009000000CD420008080B000309000000B3
:104EC000D8420008080B000309000000E342000874
:104ED000080B000309000000EE420008080B000365
:104EE00009000000F9420008080B00030900000057
:104EF00004430008090B0003090000000F430008E9
:104F0000060B01030900000025430008080D0003FB
:104F10000900000030430008080B000309000000EE
:104F20003D430008080B0003090000004843000847
:104F3000080B00030900000053430008090B00039D
:104F4000090000005E430008080B00030900000090
:104F500074430008080B0003090000007F430008A9
:104F6000080C0003090000008A430008090B000335
:104F70000900000096430008070B01030900000028
:104F8000AC430008080B000309000000B743000809
:104F9000090B000309000000C2430008090B0003CD
:104FA00009000000D8430008080B000309000000B6
:104FB000EE430008090B000309000000F943000854
:104FC000080B0003090000000F440008080B000351
:104FD000090000001A440008050E03010900000042
:104FE00025440008070E01020900000033440008B0
:104FF000050E0101090000004144000806020201FB
:10500000090000004F4400080901000F09000000DA
:105010005144000808070107090000005344000834
:10502000080C0002090000005A44000807070107A5
:105030000900000066440008080C01020900000095
:105040006D440008070701070900000079440008C3
:10505000080B01030900000080440008070901074C
:10506000090000008B440008090C00020900000040
:1050700094440008060B010309000000AC4400083A
:10508000060D010309000000B7440008080C0002E7
:1050900009000000C4440008060B010309000000D9
:1050A000D04400080907000709000000DB4400089D
:1050B0000907000709000000E94400080707010785
:1050C00009000000F7440008080900070900000073
:1050D000FE44000808090107090000000745000810
:1050E000080700070900000010450008070701072E
:1050F0000900000017450008060901050900000025
:105100001E450008090700070900000027450008A0
:1051100009070007090000003545000809070007D6
:1051200009000000434500080707010709000000C7
:10513000514500080909000709000000584500080A
:1051400007070107090000006A450008050E040171
:105150000900000071450008021004000900000069
:105160007F450008050E0101090000008F45000879
:1051700009030100090000009D4500080B0B020116
:1051800011000000A3450008100F000011000000EE
:10519000B9450008100F000111000000D7450008B4
:1051A0000C10020011000000F5450008101000006E
:1051B000110000001546000810100000110000004A
:1051C000354600080E100100110000005546000889
:1051D0000E100100110000007546000810100000BC
:1051E00011000000954600080F100000110000009B
:1051F000B5460008100F000111000000D546000858
:105200000E0F010111000000F3460008100F00000E
:1052100011000000114700081010000011000000EC
:105220002F47000810100000110000004F47000831
:10523000100F0001110000006F470008101000005F
:10524000110000008D470008101000001100000040
:10525000AD4700081010000011000000CD47000805
:105260001010000011000000ED47000810100000B1
:10527000110000000D48000810100000110000008F
:105280002D48000810100000110000004D480008D3
:105290000F100100110000006D4800080E10010001
:1052A000110000008D4800081010000011000000DF
:1052B000AD4800081010000011000000CD480008A3
:1052C000100F000011000000ED4800081010000051
:1052D000110000000B490008100F00001100000031
:1052E0002B49000810100000110000004949000877
:1052F0000F1000001100000069490008100F0001A4
:105300001100000089490008100E00021100000081
:10531000A74900080E10020011000000C349000850
:105320001010000011000000E349000810100000F8
:1053300011000000034A00081010000011000000D6
:10534000234A00080E10010011000000434A000823
:105350001010000011000000634A00081010000047
:1053600011000000834A0008100F00001100000027
:10537000A34A00081010000011000000C14A0008F4
:105380001010000011000000E14A0008100F000199
:1053900011000000014B0008101000001100000077
:1053A0001F4B0008100F0001110000003F4B0008C8
:1053B0000D100100110000005D4B000810100000EE
:1053C000110000007D4B00081010000011000000CB
:1053D0009D4B00081010000011000000BD4B00089C
:1053E0001010000011000000DD4B0008100F00003D
:1053F00011000000FD4B0008100F0000110000001C
:105400001B4C0008100F000011000000394C000870
:10541000100F000011000000574C00080E10010092
:1054200011000000754C00080E1001001100000072
:10543000954C00080F0F010111000000B54C000849
:105440000F0F010111000000D34C000810100000E4
:1054500011000000F14C0008F397F3974C5400083A
:105460000000000050965096405400085854000820
:105470003B963B963454000864540008F495F49528
:105480002854000870540008E895E8951C5400085A
:105490007C540008029502951054000888540008B6
:1054A000099009900454000894540008DB8FDB8FA6
:1054B000F8530008A0540008C78FC78FEC530008AA
:1054C000AC540008938F938FE0530008B854000841
:1054D0007D8F7D8FD4530008C4540008EF8DEF8D6D
:1054E000C8530008D0540008778D778DBC5300084E
:1054F000DC5400081F8D1F8DB0530008E8540008CD
:10550000ED8BED8BA4530008F4540008D58BD58B9C
:105510009853000800550008BE8BBE8B8C530008C2
:105520000C550008668B668B8053000818550008E0
:10553000008A008A74530008245500086E7F6E7F2D
:105540006853000830550008DF7EDF7E5C5300089A
:105550003C550008BF7EBF7E5053000848550008E8
:10556000FB7CFB7C44530008545500087B7C7B7C0F
:1055700038530008605500080B7A0B7A2C5300084A
:105580006C550008ED77ED7720530008785500083A
:10559000357535751453000884550008AF73AF7323
:1055A0000853000890550008906E906EFC52000859
:1055B0009C5500084B6D4B6DF0520008A855000833
:1055C000416D416DE4520008B4550008606C606C98
:1055D000D8520008C0550008656B656BCC520008B6
:1055E000CC550008626B626BC0520008D8550008A9
:1055F000216B216BB4520008E4550008DB69DB69BC
:10560000A8520008F0550008F266F2669C520008A5
:10561000FC550008F665F66590520008085600082B
:1056200087658765845200081456000870657065A8
:1056300078520008205600083E653E656C5200080E
:105640002C560008A763A76360520008385600086C
:10565000A562A56254520008445600082A622A62D4
:105660004852000850560008AA5FAA5F3C52000842
:105670005C560008005F005F305200086856000862
:10568000CB59CB592452000874560008F058F058F2
:1056900018520008805600088B578B570C52000890
:1056A0008C560008FE56FE56005200089856000818
:1056B0008B538B53F4510008A456000836523652CF
:1056C000E8510008B056000806520652DC510008A6
:1056D000BC560008FA51FA51D0510008C8560008CB
:1056E00085518551C4510008D45600087351735137
:1056F000B8510008E056000845514551AC5100082A
:10570000EC5600082D4E2D4EA0510008F85600080A
:105710000A4E0B4E8851000804570008A903A9033C
:105720007C5100081057000861007E0014500008EA
:105730001C57000820005F00144D0008285700087F
:105740008914000825150008A9150008AF150008E0
:105750006D1500085CB000081010010134570008F6
:105760000E070B00F0F0F0F0F0F0F06060606060A9
:1057700060600000000070F8F8701EF01EF03FF04E
:105780003DE07BC073806300C6000C180C180C1839
:105790000C180C18FFFEFFFE1830183018301830A7
:1057A000183018301830FFFEFFFE30603060306077
:1057B00030603060030003000FC01F70333873384F
:1057C000737873787B003F001F000F8007C003E0F1
:1057D00003F003780338F338F338E338E33073E049
:1057E0001FC00300030003003C0C7E1CE718E738D1
:1057F000E730E730E760E760E7C07EFC3DFE01E6AA
:1058000001E703E703E706E706E70EE70C661C7E01
:10581000183C0F801DC039C039C039C039C039802B
:105820003B801F001C7E3C187E186E18E730E73066
:10583000E3B0E3E0E1E370E379F61F3C01800300AD
:1058400006000C001C00180038007000700070008A
:10585000E000E000E000E000E000E000E000E00048
:10586000700070007000380038001C000C0006004A
:1058700003000180C0006000300018001C000C0014
:105880000E000700070007000380038003800380E9
:1058900003800380038003800700070007000E00D9
:1058A0000E001C00180030006000C00003000780DC
:1058B00007800300F33CFB7C7FF80FC003000FC0A0
:1058C0007FF8FB7CF33C03000780078007000300A0
:1058D000030003000300030003000300FFFC0300B8
:1058E000030003000300030003000300787C7C1C1A
:1058F0001C1870E0FFFE70F8F8700006000E000C37
:10590000001C0018003800300070006000E000C08B
:1059100001C0018003800300070006000E000C0098
:105920001C0018003800300070006000E000C0006B
:105930000FC01CE03870703870387018E01CE01C24
:10594000E01CE01CE01CE01CE01CE01CE01C7018EB
:105950007038703838701CE00FC006000E00FE0072
:105960000E000E000E000E000E000E000E000E00C7
:105970000E000E000E000E000E000E000E000E00B7
:105980001F00FFE01FC030F06070C038C038E03842
:10599000E03800380070006000C00180030006009D
:1059A0000C00181830186018C038FFF0FFF01F8086
:1059B00071E0E0E0E070E070E070007000E001C0D5
:1059C0000F8001E00070003000380038E038E03827
:1059D000E030E07070E01F80007000F000F001F037
:1059E00003F003F006F00EF00CF018F018F030F0B1
:1059F00060F060F0FFFE00F000F000F000F000F05A
:105A000000F007FE3FF83FF8300030003000600043
:105A100060006FC078E07070603000380038003887
:105A20000038E038E038C070C07060E03F8007E0C8
:105A30000E3018383038700070006000E000E7E089
:105A4000FC70F838F01CE01CE01CE01CE01C701C32
:105A5000701838381C700FC07FF87FF8F030E060A5
:105A6000C060C0C000C001800180030003000300CB
:105A70000600060006000E000E000E000E000E00CE
:105A80000E000FE01C703838701C701C701C781CE5
:105A90003C381E300FE01FE038F07078E03CE01C2E
:105AA000E01CE01CE01C703838700FC00FC038607C
:105AB00070307038E018E01CE01CE01CE01CE03C9A
:105AC000707C38FC1F9C001C003800380038707057
:105AD00070E071C01F8070F8F870000000000000D6
